{
  "blockHash": "0x4890a7dfdc547b894c51b5272e0b8c0fee5b86b42094608a61b7c345c8eceb3a",
  "blockNumber": "0x5d085e",
  "chainId": "0x1",
  "condition": null,
  "creates": null,
  "from": "0x25d8670ba575b9122670a902fab52aa14aebf8be",
  "gas": "0x61a80",
  "gasPrice": "0xb2d05e00",
  "hash": "0x719845a6a5f4df6c71f61e3d3d698cb759b695243dffe8679a15357b9e3b72a7",
  "input": "0x5b8ed9e20000000000000000000000000000000000000000000000000000000000000002",
  "nonce": "0x86",
  "publicKey": "0xe9b5bfe7d87056b1b314dee17ef6ee6fe90b3e3a3af0210c94f95b19652a7105a8503dbaffb74ac63e9d0b5b22825036addedaec4d92d61e28a304944376bfd2",
  "r": "0xb65a69282bc93570183666690a2474a924de3975ba8ffaba750167120a73501",
  "raw": "0xf889818684b2d05e0083061a8094307e0a27bb260dee04e3a87bedc8e3e99d10de1280a45b8ed9e2000000000000000000000000000000000000000000000000000000000000000226a00b65a69282bc93570183666690a2474a924de3975ba8ffaba750167120a73501a01dfd3d58e16d3a02cc4272e41307d14a43ee748e2962a5cacfb5dc57342ecbd3",
  "s": "0x1dfd3d58e16d3a02cc4272e41307d14a43ee748e2962a5cacfb5dc57342ecbd3",
  "standardV": "0x1",
  "to": "0x307e0a27bb260dee04e3a87bedc8e3e99d10de12",
  "transactionIndex": "0x6e",
  "v": "0x26",
  "value": "0x0"
}
