{
  "blockHash": "0x5d4c42336450d55425d8b0325c2eff5a13475a12b77ac388447d1503fcf445c2",
  "blockNumber": "0x5d085d",
  "chainId": "0x1",
  "condition": null,
  "creates": null,
  "from": "0x18437a6ffd95d99be91fad9c5efbb4f36a7818d5",
  "gas": "0xccc4",
  "gasPrice": "0x3781bf500",
  "hash": "0x3716416e1a280fab9c33e0ce1136531e23d9b620dc4f4b3c176dd62388d158ca",
  "input": "0xa9059cbb000000000000000000000000fc0321655da4fc654d8145cfee568c400b7ace82000000000000000000000000000000000000000000000000000000026ab27bbf",
  "nonce": "0x5",
  "publicKey": "0x355b9a3952cbfe040886e4453598c30712b8b122bafba5c0e2858b94d56cc98f07ffd0c7f266b5f69b0ee4df6e791b43b4ee84f405a3d3097a8ad282ed260ad0",
  "r": "0xe0fc761fba2d7fd80f1230beebcbb6a3e862eeabf75bd8bedd02ae88e4aca4be",
  "raw": "0xf8a9058503781bf50082ccc494618e75ac90b12c6049ba3b27f5d5f8651b0037f680b844a9059cbb000000000000000000000000fc0321655da4fc654d8145cfee568c400b7ace82000000000000000000000000000000000000000000000000000000026ab27bbf26a0e0fc761fba2d7fd80f1230beebcbb6a3e862eeabf75bd8bedd02ae88e4aca4bea030fee09fdf8c1487f350595f241cbd9fa02caccb14ff4e607fa00b107a9e7ad2",
  "s": "0x30fee09fdf8c1487f350595f241cbd9fa02caccb14ff4e607fa00b107a9e7ad2",
  "standardV": "0x1",
  "to": "0x618e75ac90b12c6049ba3b27f5d5f8651b0037f6",
  "transactionIndex": "0x95",
  "v": "0x26",
  "value": "0x0"
}
