{ "data": [
{"jsonrpc":"2.0","result":{"blockHash":"0x0b4c6fb75ded4b90218cf0346b0885e442878f104e1b60bf75d5b6860eeacd53","blockNumber":"0xf4629","chainId":null,"condition":null,"creates":null,"from":"0x30d285941dfb8bbbe4ec72b02c8d166be01322d2","gas":"0x5208","gasPrice":"0xba43b7400","hash":"0x060e4cf9fa8d34a8b423b5b3691b2541255ff7974ff16699e104edcfb63bd521","input":"0x","nonce":"0x0","publicKey":"0xf42126f7ffc8ab05e93ecab890e8c716b5d9ae190a2393d834bde7fe5aaac34f674c9c8f97e39ddbdef225fccc32bae2b6cfedc29aa63fbfe8f81b8adbddbe22","r":"0x6cf032bb112fa840de1fbeb245dbce71a896ff2d3cdbf14bec912cd67f601930","raw":"0xf86b80850ba43b7400825208949b0a028eafdecde3afc0fd00b7937098388b7c8a87dbbaa3d0ed1ad7801ba06cf032bb112fa840de1fbeb245dbce71a896ff2d3cdbf14bec912cd67f601930a0696a479e0d14232bf153bbad2ab867fbe48d6900e1702dcd1b7882e094e75707","s":"0x696a479e0d14232bf153bbad2ab867fbe48d6900e1702dcd1b7882e094e75707","standardV":"0x0","to":"0x9b0a028eafdecde3afc0fd00b7937098388b7c8a","transactionIndex":"0x3","v":"0x1b","value":"0xdbbaa3d0ed1ad7"},"id":"1"}
,{"jsonrpc":"2.0","result":{"blockHash":"0x0b4c6fb75ded4b90218cf0346b0885e442878f104e1b60bf75d5b6860eeacd53","blockNumber":"0xf4629","chainId":null,"condition":null,"creates":null,"from":"0x30d285941dfb8bbbe4ec72b02c8d166be01322d2","gas":"0x5208","gasPrice":"0xba43b7400","hash":"0x060e4cf9fa8d34a8b423b5b3691b2541255ff7974ff16699e104edcfb63bd521","input":"0x","nonce":"0x0","publicKey":"0xf42126f7ffc8ab05e93ecab890e8c716b5d9ae190a2393d834bde7fe5aaac34f674c9c8f97e39ddbdef225fccc32bae2b6cfedc29aa63fbfe8f81b8adbddbe22","r":"0x6cf032bb112fa840de1fbeb245dbce71a896ff2d3cdbf14bec912cd67f601930","raw":"0xf86b80850ba43b7400825208949b0a028eafdecde3afc0fd00b7937098388b7c8a87dbbaa3d0ed1ad7801ba06cf032bb112fa840de1fbeb245dbce71a896ff2d3cdbf14bec912cd67f601930a0696a479e0d14232bf153bbad2ab867fbe48d6900e1702dcd1b7882e094e75707","s":"0x696a479e0d14232bf153bbad2ab867fbe48d6900e1702dcd1b7882e094e75707","standardV":"0x0","to":"0x9b0a028eafdecde3afc0fd00b7937098388b7c8a","transactionIndex":"0x3","v":"0x1b","value":"0xdbbaa3d0ed1ad7"},"id":"1"}
], "errors": [
"Transaction 0x0766ec95bf12f9600afc6c33c287f9d2356d85f15f0d7eeeb6647f5d4ddfbc11 not found."

] }