[
{"jsonrpc":"2.0","result":{"blockHash":"0xb8a3f7f5cfc1748f91a684f20fe89031202cbadcd15078c49b85ec2a57f43853","blockNumber":"0x3d0900","chainId":"0x1","condition":null,"creates":null,"from":"0x40584168524a928ae43b4e83893f963e467e9d73","gas":"0xf4240","gasPrice":"0x5d21dba00","hash":"0xfe52da8afe135e14a0855240e1ef4b44a0b4ebe374bd39de307cf0f3fabf0ff1","input":"0xa9059cbb00000000000000000000000043a4210390998945dc7658a20b43c6c4189ac7d4000000000000000000000000000000000000000000000000000000000a21fe80","nonce":"0x78f","publicKey":"0xe7161573f02aed6120654254522870e9b04f2140353a1b243c2e454d1e062e9cef1c7342dbe641175646a925b9ffca4dcb696d2468886ab249f76d07af545b6b","r":"0x700ded234c42a19d31b216f1524d857112ac268f69b4e9772488503829a63e70","raw":"0xf8ac82078f8505d21dba00830f4240941a95b271b0535d15fa49932daba31ba612b5294680b844a9059cbb00000000000000000000000043a4210390998945dc7658a20b43c6c4189ac7d4000000000000000000000000000000000000000000000000000000000a21fe8026a0700ded234c42a19d31b216f1524d857112ac268f69b4e9772488503829a63e70a0504f5ec5c8bae3862f9032fdae24cb836516bdcf84ffb559d61c28249d52470b","s":"0x504f5ec5c8bae3862f9032fdae24cb836516bdcf84ffb559d61c28249d52470b","standardV":"0x1","to":"0x1a95b271b0535d15fa49932daba31ba612b52946","transactionIndex":"0x5","v":"0x26","value":"0x0"},"id":"1"}
]
