getTrans argc: 4 [1:0x0b4c6fb75ded4b90218cf0346b0885e442878f104e1b60bf75d5b6860eeacd53.1] [2:0x0b4c6fb75ded4b90218cf0346b0885e442878f104e1b60bf75d5b6860eeacd53.5] [3:--very_raw] 
getTrans 0x0b4c6fb75ded4b90218cf0346b0885e442878f104e1b60bf75d5b6860eeacd53.1 0x0b4c6fb75ded4b90218cf0346b0885e442878f104e1b60bf75d5b6860eeacd53.5 --very_raw 
{ "data": [
{"jsonrpc":"2.0","result":{"blockHash":"0x0b4c6fb75ded4b90218cf0346b0885e442878f104e1b60bf75d5b6860eeacd53","blockNumber":"0xf4629","chainId":null,"condition":null,"creates":null,"from":"0x2a65aca4d5fc5b5c859090a6c34d164135398226","gas":"0x15f90","gasPrice":"0xba43b7400","hash":"0xef2ea39c20ba09553b2f3cf02380406ac766039ca56612937eed5e7f3503fb3a","input":"0x","nonce":"0x2a3f0","publicKey":"0x4c3eb5e19c71d8245eaaaba21ef8f94a70e9250848d10ade086f893a7a33a06d7063590e9e6ca88f918d7704840d903298fe802b6047fa7f6d09603eba690c39","r":"0xa679d4f56102f1f79426197535412e845cf90ee9c7a6f635acce7f5836d599a5","raw":"0xf8708302a3f0850ba43b740083015f9094d77ba7ef37f87d5246f35de898133e09c92ecaca881dd0b460c6bf1c00801ba0a679d4f56102f1f79426197535412e845cf90ee9c7a6f635acce7f5836d599a5a03eb6fd72a44ca685f9841ff06cffcf7412a5a8ab7fa307a7fc341f9bbd473864","s":"0x3eb6fd72a44ca685f9841ff06cffcf7412a5a8ab7fa307a7fc341f9bbd473864","standardV":"0x0","to":"0xd77ba7ef37f87d5246f35de898133e09c92ecaca","transactionIndex":"0x1","v":"0x1b","value":"0x1dd0b460c6bf1c00"},"id":"1"}
], "errors": [
"Transaction 0x0b4c6fb75ded4b90218cf0346b0885e442878f104e1b60bf75d5b6860eeacd53.5 not found."
] }