getBlock argc: 7 [1:2769609] [2:2799895] [3:2872831] [4:3076260] [5:--raw] [6:--parity] 
getBlock 2769609 2799895 2872831 3076260 --raw --parity 
{ "data": [
{"jsonrpc":"2.0","result":{"author":"0x1e9939daaad6924ad004c2560e90804164900341","difficulty":"0x444a544d2788","extraData":"0x706f6f6c2e65746866616e732e6f7267","gasLimit":"0x3d08fc","gasUsed":"0x2858a","hash":"0x549eb23a472504a498b07a122b8461121cec1a25a8b5ee8831917b426a99e3d7","logsBloom":"0x00000000000000000000000000000000000000000400000000000000000000000000000000000000000000000080000008000000004040000004000000000000000000000000000004000080000000000001000000000000000104000004000000100000000000000000000000000000000000000000000000020000000010000000000000000002000000000004000008000000000000000000000000000000000000000000000000000000000000000000000000000000000000000000000000000000000000000000000000000001000000000000000000000000000000000000000000100000000000020000000000000000400000000400000000000002","miner":"0x1e9939daaad6924ad004c2560e90804164900341","mixHash":"0xf4c05f32748abdd86e846893deec00eaaa7a8fee4de4f80cbbe6d21192eabfa6","nonce":"0x79cd1a90008da0ce","number":"0x2a42c9","parentHash":"0x1fa2fd84ee6d2cd02212350aa2e38b7117e20ba8a66aefdaad08637d29f96261","receiptsRoot":"0x726a6c52b52adbb2db57b1d4ce4c3c55d01a62d2a9c66bb30c48fe1eec669813","sealFields":["0xa0f4c05f32748abdd86e846893deec00eaaa7a8fee4de4f80cbbe6d21192eabfa6","0x8879cd1a90008da0ce"],"sha3Uncles":"0x1dcc4de8dec75d7aab85b567b6ccd41ad312451b948a7413f0a142fd40d49347","size":"0x56b","stateRoot":"0x594ae90366fc1a56b6259c7a7e0c965f3e87e601e6076b90f7b732e10098136d","timestamp":"0x58492c18","totalDifficulty":"0x56c3f6513d8a51e4f","transactions":[{"blockHash":"0x549eb23a472504a498b07a122b8461121cec1a25a8b5ee8831917b426a99e3d7","blockNumber":"0x2a42c9","chainId":null,"condition":null,"creates":null,"from":"0xaaca7b76ab966e336b4cd359ae8d8dc8dac1b4d5","gas":"0x5208","gasPrice":"0xba43b7400","hash":"0x37b782add315701ae7c1bb5ea2759bf75851940aec1459e6284d8c6e61f15519","input":"0x","nonce":"0x9b","publicKey":"0x76ec6c397f1e9bac19f5b635712f5eac50d94fea003b4b11c0e54b6df5ffda1268cf23d5d96153e7e85216c97b6f4ab817259262fe976e12d0956317b2946107","r":"0xdc8260707a0523c6bc03fb05f64704bbae6235df1c28237fa6933696cbff9a36","raw":"0xf86d819b850ba43b7400825208948335db4288a6d98d49f7db2e415f7c0652ee4fb5880e99746d1fb60000801ba0dc8260707a0523c6bc03fb05f64704bbae6235df1c28237fa6933696cbff9a36a05fa9a546f806ca5939fb8e7826d2e1036b923caa8e3d0ffbc0b92f3a6592d3cf","s":"0x5fa9a546f806ca5939fb8e7826d2e1036b923caa8e3d0ffbc0b92f3a6592d3cf","standardV":"0x0","to":"0x8335db4288a6d98d49f7db2e415f7c0652ee4fb5","transactionIndex":"0x0","v":"0x1b","value":"0xe99746d1fb60000"},{"blockHash":"0x549eb23a472504a498b07a122b8461121cec1a25a8b5ee8831917b426a99e3d7","blockNumber":"0x2a42c9","chainId":"0x1","condition":null,"creates":null,"from":"0x648e0835b0eacf62ee6ff579d8fc40421eea5bef","gas":"0x5208","gasPrice":"0x9502f9000","hash":"0xea5c7edfe28e30227541148a1411d03dfbf9a30cf158eddef0f18061e2d93909","input":"0x","nonce":"0x9","publicKey":"0xf9aa68bf17b49b6aae261d8ea3ac694a867fff36e005c8a79d9df7bec4bc5308b7a486244f93b376a9b389a5a06352d3a6aeac7b34e04e93ccea89c2016279ef","r":"0x9df1569d5c28eceefef0c5dba4c69d06ebefdcf8347f50cb38ee3ef233499a97","raw":"0xf86c098509502f9000825208947ed1e469fcb3ee19c0366d829e291451be638e5988014f049a817f08628026a09df1569d5c28eceefef0c5dba4c69d06ebefdcf8347f50cb38ee3ef233499a97a028e157a7c525b0e5d0c205142f8eb178518c9449ef949295fd960b6485f49fd7","s":"0x28e157a7c525b0e5d0c205142f8eb178518c9449ef949295fd960b6485f49fd7","standardV":"0x1","to":"0x7ed1e469fcb3ee19c0366d829e291451be638e59","transactionIndex":"0x1","v":"0x26","value":"0x14f049a817f0862"},{"blockHash":"0x549eb23a472504a498b07a122b8461121cec1a25a8b5ee8831917b426a99e3d7","blockNumber":"0x2a42c9","chainId":"0x1","condition":null,"creates":null,"from":"0x9e0b9ddba97dd4f7addab0b5f67036eebe687606","gas":"0x20f58","gasPrice":"0x4a817c800","hash":"0x0fd77ca957ecef97cd68355d155cd66173c5fd133c0ed1ce1ffd24156043184b","input":"0xa9059cbb000000000000000000000000b6907884085f2e1710b95c15c8da4552fd51722200000000000000000000000000000000000000000000000003d9e0c79d2bc000","nonce":"0x173a4","publicKey":"0xb2c61ad5e1c3da73027f63b00f01be0151f843e47e6dff107f80007ec82e02d2e5e6d88a62629aa478eafcff960d85c3a177513064871271c8c11d646aa36d38","r":"0x5927a1574c857a167a2727a9f1be846ea174c4543ab45a9539e1ff8527996241","raw":"0xf8ad830173a48504a817c80083020f589437a9679c41e99db270bda88de8ff50c0cd23f32680b844a9059cbb000000000000000000000000b6907884085f2e1710b95c15c8da4552fd51722200000000000000000000000000000000000000000000000003d9e0c79d2bc00025a05927a1574c857a167a2727a9f1be846ea174c4543ab45a9539e1ff8527996241a036efaaf0db896332ab7946ab18675b6261eb92ef2adfa190f47316a18df15dd3","s":"0x36efaaf0db896332ab7946ab18675b6261eb92ef2adfa190f47316a18df15dd3","standardV":"0x0","to":"0x37a9679c41e99db270bda88de8ff50c0cd23f326","transactionIndex":"0x2","v":"0x25","value":"0x0"},{"blockHash":"0x549eb23a472504a498b07a122b8461121cec1a25a8b5ee8831917b426a99e3d7","blockNumber":"0x2a42c9","chainId":"0x1","condition":null,"creates":null,"from":"0x1e9939daaad6924ad004c2560e90804164900341","gas":"0x9858","gasPrice":"0x4a817c800","hash":"0x4d153f3c546313fdbeb7eb0d24161c650a34ec78cc1585044a059d3d176fb2f1","input":"0x","nonce":"0x19554","publicKey":"0x9fd89da696721cb906af81fe5d8bc3d0a4a7368be52db98d9e3a2d7c5f7aef545e8e578c2a158236d6221512c5df892b23bbe1087966f134799d6e36d3097973","r":"0x71c4ce3d30476eba1bbb262d51f0335105e7fd6aaeab8cb32a02436774395c30","raw":"0xf86f830195548504a817c800829858942c23f3487d476da262189d2659df7225745e5a97880e012d25d421bf5c8025a071c4ce3d30476eba1bbb262d51f0335105e7fd6aaeab8cb32a02436774395c30a0557e43c1959406b76b3fe33456b0a6bed937f2b994adbb8a86f617ffdc35b8b4","s":"0x557e43c1959406b76b3fe33456b0a6bed937f2b994adbb8a86f617ffdc35b8b4","standardV":"0x0","to":"0x2c23f3487d476da262189d2659df7225745e5a97","transactionIndex":"0x3","v":"0x25","value":"0xe012d25d421bf5c"},{"blockHash":"0x549eb23a472504a498b07a122b8461121cec1a25a8b5ee8831917b426a99e3d7","blockNumber":"0x2a42c9","chainId":"0x1","condition":null,"creates":null,"from":"0x8b2232c5006a7c9bcb7b52d07ad429bb71ae2c1c","gas":"0x5208","gasPrice":"0x4a817c800","hash":"0x60fc885024c47b1876ec3caee0a497e007a999f300af1964f94ffd8ce0932e7f","input":"0x","nonce":"0x6bd","publicKey":"0xa320b28cecae4be549af0cdcb86b741757e1979bfdcca6e37ba043de85fcf92e553c5dbc7f55a439927305467ac25a226c8338cfb4ffb5ca4f05a74be8bf6348","r":"0x9c4f81cfe7383891f306078f479d1c1cbc3751c3253d3696662930c6e4f701b5","raw":"0xf86f8206bd8504a817c800825208945c70eb0e8923cc0c416e8fa002ad165c9cfcfb248904e8de9ea7cccd80008026a09c4f81cfe7383891f306078f479d1c1cbc3751c3253d3696662930c6e4f701b5a05d3275f06147674aceaf882ab407dcfdabc2acdacddf5180d61b28da71a1c81f","s":"0x5d3275f06147674aceaf882ab407dcfdabc2acdacddf5180d61b28da71a1c81f","standardV":"0x1","to":"0x5c70eb0e8923cc0c416e8fa002ad165c9cfcfb24","transactionIndex":"0x4","v":"0x26","value":"0x4e8de9ea7cccd8000"},{"blockHash":"0x549eb23a472504a498b07a122b8461121cec1a25a8b5ee8831917b426a99e3d7","blockNumber":"0x2a42c9","chainId":"0x1","condition":null,"creates":null,"from":"0x1151314c646ce4e0efd76d1af4760ae66a9fe30f","gas":"0x15f90","gasPrice":"0x4a817c800","hash":"0xbf938f8655b5f08d0e8887c4a1a749741c644c800eaede9b9711f6953ac236c2","input":"0x","nonce":"0x140b","publicKey":"0x9f08ab0bb8cda22a3813b961ca7f88139478d52b57bff640d3d4d3d82c085c84f3bb1a88bfd51ac70457801473cc155b4c64cf3a536580d67168d15e5a0b7e41","r":"0x13da4f07fc451987be7cc99587ea9d11b62f7b49ca8b53872671f7d3dedae37f","raw":"0xf87082140b8504a817c80083015f90945c70eb0e8923cc0c416e8fa002ad165c9cfcfb248903425c4075c20900008026a013da4f07fc451987be7cc99587ea9d11b62f7b49ca8b53872671f7d3dedae37fa01c5ed21fca6f08c2915b24a06c6d84d27d984efbeac737b74697f57f8ae7750c","s":"0x1c5ed21fca6f08c2915b24a06c6d84d27d984efbeac737b74697f57f8ae7750c","standardV":"0x1","to":"0x5c70eb0e8923cc0c416e8fa002ad165c9cfcfb24","transactionIndex":"0x5","v":"0x26","value":"0x3425c4075c2090000"},{"blockHash":"0x549eb23a472504a498b07a122b8461121cec1a25a8b5ee8831917b426a99e3d7","blockNumber":"0x2a42c9","chainId":"0x1","condition":null,"creates":null,"from":"0x1e9939daaad6924ad004c2560e90804164900341","gas":"0x9858","gasPrice":"0x4a817c800","hash":"0x897b60d7598181e568734e71f8784be308fe411afa28bf8669374fd561d5b950","input":"0x","nonce":"0x19555","publicKey":"0x9fd89da696721cb906af81fe5d8bc3d0a4a7368be52db98d9e3a2d7c5f7aef545e8e578c2a158236d6221512c5df892b23bbe1087966f134799d6e36d3097973","r":"0x8fbf74c28c27f50fdd7762add2829c1e99b290afa835501d967c6fa80d8ff54c","raw":"0xf86f830195558504a817c800829858943d5fb40d096ff8327ba7b8885ad3b6bb3c1c4533880deac214732f95588025a08fbf74c28c27f50fdd7762add2829c1e99b290afa835501d967c6fa80d8ff54ca040f87fe2cc7bc6db8332eb097c324a091189451242522ca0b82f6f49de51f4e7","s":"0x40f87fe2cc7bc6db8332eb097c324a091189451242522ca0b82f6f49de51f4e7","standardV":"0x0","to":"0x3d5fb40d096ff8327ba7b8885ad3b6bb3c1c4533","transactionIndex":"0x6","v":"0x25","value":"0xdeac214732f9558"}],"transactionsRoot":"0x0c324316e29b714b1963be0787b82288e7885f101da1a5ba0b3c76d6a48a2410","uncles":[]},"id":"1"},
{"jsonrpc":"2.0","result":{"author":"0x61c808d82a3ac53231750dadc13c777b59310bd9","difficulty":"0x4a789f0d61a2","extraData":"0xe4b883e5bda9e7a59ee4bb99e9b1bc","gasLimit":"0x3d1b3d","gasUsed":"0x0","hash":"0x900779fded60ab5079c74e994193fac9c35229e047cbce06fb30457e53fe8c48","logsBloom":"0x00000000000000000000000000000000000000000000000000000000000000000000000000000000000000000000000000000000000000000000000000000000000000000000000000000000000000000000000000000000000000000000000000000000000000000000000000000000000000000000000000000000000000000000000000000000000000000000000000000000000000000000000000000000000000000000000000000000000000000000000000000000000000000000000000000000000000000000000000000000000000000000000000000000000000000000000000000000000000000000000000000000000000000000000000000000","miner":"0x61c808d82a3ac53231750dadc13c777b59310bd9","mixHash":"0x5eaebdca135b408fcd4f4b3355ff57761ceea60c17a5fcdfba2cb7d0a9145c09","nonce":"0x40d1e620281b2003","number":"0x2ab917","parentHash":"0x906210a8d171cef355632314ac1e8f196b17bc9a4875e9df311ab2aec5791339","receiptsRoot":"0x56e81f171bcc55a6ff8345e692c0f86e5b48e01b996cadc001622fb5e363b421","sealFields":["0xa05eaebdca135b408fcd4f4b3355ff57761ceea60c17a5fcdfba2cb7d0a9145c09","0x8840d1e620281b2003"],"sha3Uncles":"0x1dcc4de8dec75d7aab85b567b6ccd41ad312451b948a7413f0a142fd40d49347","size":"0x214","stateRoot":"0x61edb208bc08e83a999803eb05474b3a633559f9ef5a18cb4b896efbc7e58ba3","timestamp":"0x584fbe52","totalDifficulty":"0x58e1bfbff63bf026e","transactions":[],"transactionsRoot":"0x56e81f171bcc55a6ff8345e692c0f86e5b48e01b996cadc001622fb5e363b421","uncles":[]},"id":"1"},
{"jsonrpc":"2.0","result":{"author":"0x4bb96091ee9d802ed039c4d1a5f6216f90f81b01","difficulty":"0x463ab1b26923","extraData":"0x657468706f6f6c202d20455531","gasLimit":"0x3d371b","gasUsed":"0x0","hash":"0xf7ee644e2baec7aa00c9f88f893d4607054779068eeb50bcac5f765943291ca2","logsBloom":"0x00000000000000000000000000000000000000000000000000000000000000000000000000000000000000000000000000000000000000000000000000000000000000000000000000000000000000000000000000000000000000000000000000000000000000000000000000000000000000000000000000000000000000000000000000000000000000000000000000000000000000000000000000000000000000000000000000000000000000000000000000000000000000000000000000000000000000000000000000000000000000000000000000000000000000000000000000000000000000000000000000000000000000000000000000000000","miner":"0x4bb96091ee9d802ed039c4d1a5f6216f90f81b01","mixHash":"0x2a7c11ff9c2f9e471b1d1858c1635048b123ac82f3d7616a1ed0f35a5f7cd65c","nonce":"0xc95e3c802919bc3b","number":"0x2bd5ff","parentHash":"0x206a8a664c2d026e5301accac15cf1a12b623da1cd16dbccb0557152a076279d","receiptsRoot":"0x56e81f171bcc55a6ff8345e692c0f86e5b48e01b996cadc001622fb5e363b421","sealFields":["0xa02a7c11ff9c2f9e471b1d1858c1635048b123ac82f3d7616a1ed0f35a5f7cd65c","0x88c95e3c802919bc3b"],"sha3Uncles":"0x1dcc4de8dec75d7aab85b567b6ccd41ad312451b948a7413f0a142fd40d49347","size":"0x212","stateRoot":"0x544684e5731f4300c6bd6d15cb0f2b278055adb76b4b3a62682e6ea1888fa01d","timestamp":"0x585fa7f6","totalDifficulty":"0x5e3f5e95c565c169d","transactions":[],"transactionsRoot":"0x56e81f171bcc55a6ff8345e692c0f86e5b48e01b996cadc001622fb5e363b421","uncles":[]},"id":"1"},
{"jsonrpc":"2.0","result":{"author":"0x61c808d82a3ac53231750dadc13c777b59310bd9","difficulty":"0x66078c767c98","extraData":"0xe4b883e5bda9e7a59ee4bb99e9b1bc","gasLimit":"0x3cfc86","gasUsed":"0x0","hash":"0x5d0614997a0beb807fe1ac293af95eef17f2769a3762b166d950709197299b5f","logsBloom":"0x00000000000000000000000000000000000000000000000000000000000000000000000000000000000000000000000000000000000000000000000000000000000000000000000000000000000000000000000000000000000000000000000000000000000000000000000000000000000000000000000000000000000000000000000000000000000000000000000000000000000000000000000000000000000000000000000000000000000000000000000000000000000000000000000000000000000000000000000000000000000000000000000000000000000000000000000000000000000000000000000000000000000000000000000000000000","miner":"0x61c808d82a3ac53231750dadc13c777b59310bd9","mixHash":"0x146bb119a68ad2c1a1c45ea9b6c4626692a3278558cfb439ca079d46b114e4fe","nonce":"0x59c039e00ff0a888","number":"0x2ef0a4","parentHash":"0x3ab4b421b943b5401a40a2fcad52782194d6f788afed587a3d9518bec57f50e9","receiptsRoot":"0x56e81f171bcc55a6ff8345e692c0f86e5b48e01b996cadc001622fb5e363b421","sealFields":["0xa0146bb119a68ad2c1a1c45ea9b6c4626692a3278558cfb439ca079d46b114e4fe","0x8859c039e00ff0a888"],"sha3Uncles":"0x1dcc4de8dec75d7aab85b567b6ccd41ad312451b948a7413f0a142fd40d49347","size":"0x214","stateRoot":"0xa61fa8f3b05a9571f1616fa8f44241ff206943d0006b4a2a423605c656aab8e3","timestamp":"0x588bea28","totalDifficulty":"0x6f333f2e23cbd27cb","transactions":[],"transactionsRoot":"0x56e81f171bcc55a6ff8345e692c0f86e5b48e01b996cadc001622fb5e363b421","uncles":[]},"id":"1"}] }