{"jsonrpc":"2.0","result":{"author":"0x61c808d82a3ac53231750dadc13c777b59310bd9","difficulty":"0x17e43406ab26f","extraData":"0xe4b883e5bda9e7a59ee4bb99e9b1bc","gasLimit":"0x41291b","gasUsed":"0xa410","hash":"0x7500bcd0a30eff16f3b6b7501468b2b9f2e906981df84f53007c6204e4506282","logsBloom":"0x00000000000000000000000000000000000000000000000000000000000000000000000000000000000000000000000000000000000000000000000000000000000000000000000000000000000000000000000000000000000000000000000000000000000000000000000000000000000000000000000000000000000000000000000000000000000000000000000000000000000000000000000000000000000000000000000000000000000000000000000000000000000000000000000000000000000000000000000000000000000000000000000000000000000000000000000000000000000000000000000000000000000000000000000000000000","miner":"0x61c808d82a3ac53231750dadc13c777b59310bd9","mixHash":"0xcf8a7d695af615042248044537593fb2561ca51c1c51b3dfe5d77738ded9b731","nonce":"0x6bdb495c0c74f320","number":"0x38a3a0","parentHash":"0x20e7bc9dac70569a8222337059d3564ac9c163f4f000aefaf47a396a40cfb4ca","receiptsRoot":"0x7fac254314c457af926f7e4b343bf1ea7c86d8f43f0acced12e6479712cf4f2b","sealFields":["0xa0cf8a7d695af615042248044537593fb2561ca51c1c51b3dfe5d77738ded9b731","0x886bdb495c0c74f320"],"sha3Uncles":"0x1dcc4de8dec75d7aab85b567b6ccd41ad312451b948a7413f0a142fd40d49347","size":"0x2f7","stateRoot":"0xf8e6e610d7290d6dcc537496f84793accf19cbdaded142848d8d58295d811d2f","timestamp":"0x5919df60","totalDifficulty":"0xe6f4e5a1a6e645562","transactions":[{"blockHash":"0x7500bcd0a30eff16f3b6b7501468b2b9f2e906981df84f53007c6204e4506282","blockNumber":"0x38a3a0","condition":null,"creates":null,"from":"0x4fcee1a5762d5ed36635bafa2be5e5c227d8a7db","gas":"0x5208","gasPrice":"0x9502f9000","hash":"0x97745667846f243f07303fed8f50417e6bb880eeba3a8a48369d8647c9326ba5","input":"0x","networkId":1,"nonce":"0x6","publicKey":"0xa501cc3fe321b78db2536a08d7b5e2432a673aba528869555a232c8dde1ac94e911ec2f79dab7da127724d91b8e4d6496a0f97481b91ec05ede68feedaf0f56e","r":"0xd478134b80a428a32d7168620a09b7e2190c452632e41bcb4c019c7f90192a99","raw":"0xf86b068509502f9000825208947ed1e469fcb3ee19c0366d829e291451be638e598714524f481d80008026a0d478134b80a428a32d7168620a09b7e2190c452632e41bcb4c019c7f90192a99a05609c8563bb6f9c56ba47e03f72de7809fd2c260af3ff265f472889e437437a1","s":"0x5609c8563bb6f9c56ba47e03f72de7809fd2c260af3ff265f472889e437437a1","standardV":"0x1","to":"0x7ed1e469fcb3ee19c0366d829e291451be638e59","transactionIndex":"0x0","v":"0x26","value":"0x14524f481d8000"},{"blockHash":"0x7500bcd0a30eff16f3b6b7501468b2b9f2e906981df84f53007c6204e4506282","blockNumber":"0x38a3a0","condition":null,"creates":null,"from":"0x32be343b94f860124dc4fee278fdcbd38c102d88","gas":"0x51615","gasPrice":"0x6fc23ac00","hash":"0x8dfe1801b0f6e0ef9963c85fa389295d1561662e3287d3bc2c830794dd53cfcb","input":"0x","networkId":1,"nonce":"0x5111d","publicKey":"0x027c7bd9ef503f22e752db1b684ff18ea3cd4179ea6b46dcedb66372e9d4b9aa03be088f43e57f866d16a4cf6d12d02a8d6f24c863f242939eb0e301b54c7664","r":"0x8557af7a5bb11475474c525aa0d9a30a210ffbfbab146d3b3c8854faa9234fd9","raw":"0xf8708305111d8506fc23ac00830516159483bf20f546912175d5b5224c571b221606c6ced48802a303fe4b5300008025a08557af7a5bb11475474c525aa0d9a30a210ffbfbab146d3b3c8854faa9234fd9a075727d1b03f702916ba4dcdd4adb285fa30bbe0ef2b6b92aa1887d0fd2316745","s":"0x75727d1b03f702916ba4dcdd4adb285fa30bbe0ef2b6b92aa1887d0fd2316745","standardV":"0x0","to":"0x83bf20f546912175d5b5224c571b221606c6ced4","transactionIndex":"0x1","v":"0x25","value":"0x2a303fe4b530000"}],"transactionsRoot":"0xf83427ee0fd5ab758531411ad1ad650610fa7728193483b036ecee16ccd03b0c","uncles":[]},"id":150}
