{
  "blockHash": "0x5f464a4fec4ef7df373e331c1804662b2a64030f22735d611b7d939e14224f15",
  "blockNumber": "0x9d1132",
  "chainId": "0x1",
  "condition": null,
  "creates": null,
  "from": "0xf503017d7baf7fbc0fff7492b751025c6a78179b",
  "gas": "0x10203",
  "gasPrice": "0x6fcbc4280",
  "hash": "0x510acf20070895b13a5e7fe050e4756a22c0f274ae7d6416a175a863c7cdcb23",
  "input": "0x095ea7b30000000000000000000000007d655c57f71464b6f83811c55d84009cd9f5221c0000000000000000000000000000000000000000000000004563918244f40000",
  "nonce": "0x4e",
  "publicKey": "0x4d2838029046d64632882ff8d57dfd11692fb7441f67ca08347c14b01ea3095b7bcb9154307993b536e5362f9e92cd527ffcdf2f4bbbb5fc93c20ba609f26661",
  "r": "0x162c82f6f3a1b58f31dfdb5f91dce3e3cf24b2485f0c6528cb9cbbd49c304358",
  "raw": "0xf8aa4e8506fcbc428083010203946b175474e89094c44da98b954eedeac495271d0f80b844095ea7b30000000000000000000000007d655c57f71464b6f83811c55d84009cd9f5221c0000000000000000000000000000000000000000000000004563918244f4000025a0162c82f6f3a1b58f31dfdb5f91dce3e3cf24b2485f0c6528cb9cbbd49c304358a071a7bca097bee3aa12d379e207065e617c0acaa253b8bbc8fd517b95ff64cff1",
  "s": "0x71a7bca097bee3aa12d379e207065e617c0acaa253b8bbc8fd517b95ff64cff1",
  "standardV": "0x0",
  "to": "0x6b175474e89094c44da98b954eedeac495271d0f",
  "transactionIndex": "0x6d",
  "v": "0x25",
  "value": "0x0",
  "receipt": {
    "logs": [
      {
        "address": "0x6b175474e89094c44da98b954eedeac495271d0f",
        "logIndex": 168,
        "topics": [
          "0x8c5be1e5ebec7d5bd14f71427d1e84f3dd0314c0f7b2291e5b200ac8c7c3b925",
          "0x000000000000000000000000f503017d7baf7fbc0fff7492b751025c6a78179b",
          "0x0000000000000000000000007d655c57f71464b6f83811c55d84009cd9f5221c"
        ],
        "data": "0x0000000000000000000000000000000000000000000000004563918244f40000"
      }
    ],
    "status": 1
  }
}
