{"data": [
{"jsonrpc":"2.0","result":{"author":"0xea674fdde714fd979de3edf0f56aa9716b898ec8","difficulty":"0x450cc7c5b8b2","extraData":"0x65746865726d696e65202d20455531","gasLimit":"0x3d2782","gasUsed":"0xe376","hash":"0x55d9959f2d782dceb3986fcfd0a695007e4f4df3cd3aade5fef2049c21d93d88","logsBloom":"0x00000000000000000000000000000000000000000000000000000000000000000000000000000000000000000000000000000000004040000004000000000000000000400000000000000000000000000000000000000000000100000000000000100000000000000000000000000000000000000000000000020000000010000000000000000000000000000000000000000000000000000000000000000000000000000000000000000000000000000000000000000000000000000000000000000200000000000000000000000000000000000000000000000000000000000000000000000000008000020000000000000000000000000000000000000002","miner":"0xea674fdde714fd979de3edf0f56aa9716b898ec8","mixHash":"0xdfee062a7acf6d35409c3155da11d95a558ccf01318e475b73a72f714233679f","nonce":"0x00665788000c9623","number":"0x2a3fa1","parentHash":"0xabc3e2787669f48ad8ab2e521cf914d779e6514f296914d12b0668af5b2f97d0","receiptsRoot":"0x9989b7dd5d8fffe4dd198f9f2d6b20270172df22ecedc9a8def42ab11373201d","sealFields":["0xa0dfee062a7acf6d35409c3155da11d95a558ccf01318e475b73a72f714233679f","0x8800665788000c9623"],"sha3Uncles":"0x1dcc4de8dec75d7aab85b567b6ccd41ad312451b948a7413f0a142fd40d49347","size":"0x339","stateRoot":"0x83ee7ef8352ca2b4d334422df96a87d849fab065fd5ca6a1ba328ab99d79d8c6","timestamp":"0x5848fe6f","totalDifficulty":"0x56b659c266c99939c","transactions":[{"blockHash":"0x55d9959f2d782dceb3986fcfd0a695007e4f4df3cd3aade5fef2049c21d93d88","blockNumber":"0x2a3fa1","chainId":"0x1","condition":null,"creates":null,"from":"0x2a65aca4d5fc5b5c859090a6c34d164135398226","gas":"0x15f90","gasPrice":"0x5d21dba00","hash":"0x4dab09c3c4b1bf67e67f794e91ebe945103e7aafd5e4772b7d69f466f42a3403","input":"0x","nonce":"0x195ef4","publicKey":"0x4c3eb5e19c71d8245eaaaba21ef8f94a70e9250848d10ade086f893a7a33a06d7063590e9e6ca88f918d7704840d903298fe802b6047fa7f6d09603eba690c39","r":"0x1da8bcb69807b3249edeffa7823f8801176603cfee4e7de6dacdddca5793efc4","raw":"0xf87083195ef48505d21dba0083015f9094198e145d2e525fc0b95d0ab75471756bc1de8d7a880e1d6516ed44e0008025a01da8bcb69807b3249edeffa7823f8801176603cfee4e7de6dacdddca5793efc4a023fc7804f727e1d2327ce1a85e9e742bc7ec33f2604ae4520c2227f30247944f","s":"0x23fc7804f727e1d2327ce1a85e9e742bc7ec33f2604ae4520c2227f30247944f","standardV":"0x0","to":"0x198e145d2e525fc0b95d0ab75471756bc1de8d7a","transactionIndex":"0x0","v":"0x25","value":"0xe1d6516ed44e000"},{"blockHash":"0x55d9959f2d782dceb3986fcfd0a695007e4f4df3cd3aade5fef2049c21d93d88","blockNumber":"0x2a3fa1","chainId":"0x1","condition":null,"creates":null,"from":"0x9e0b9ddba97dd4f7addab0b5f67036eebe687606","gas":"0x20f58","gasPrice":"0x4a817c800","hash":"0x60b32a9330fb926430c25eab285c548e30d60881bdabd94d72c4cbaa93435d50","input":"0xa9059cbb000000000000000000000000856a27476cbb2117ef51b2c047361e492bf1365e000000000000000000000000000000000000000000000000006a94d74f430000","nonce":"0x1717e","publicKey":"0xb2c61ad5e1c3da73027f63b00f01be0151f843e47e6dff107f80007ec82e02d2e5e6d88a62629aa478eafcff960d85c3a177513064871271c8c11d646aa36d38","r":"0x8226277b7e050cce278cdad440dedb92e5474f12aa8d662801990e13e151afb1","raw":"0xf8ad8301717e8504a817c80083020f589437a9679c41e99db270bda88de8ff50c0cd23f32680b844a9059cbb000000000000000000000000856a27476cbb2117ef51b2c047361e492bf1365e000000000000000000000000000000000000000000000000006a94d74f43000025a08226277b7e050cce278cdad440dedb92e5474f12aa8d662801990e13e151afb1a03d6a04cfad8f3089b04b8ff935002332242b348204076e04d353acd15fdeb9ba","s":"0x3d6a04cfad8f3089b04b8ff935002332242b348204076e04d353acd15fdeb9ba","standardV":"0x0","to":"0x37a9679c41e99db270bda88de8ff50c0cd23f326","transactionIndex":"0x1","v":"0x25","value":"0x0"}],"transactionsRoot":"0x431798971e1b33824842c82e8ae24c3078863f5fd47e373a068f22cab63bab5f","uncles":[]},"id":"1"},
{"jsonrpc":"2.0","result":{"author":"0xea674fdde714fd979de3edf0f56aa9716b898ec8","difficulty":"0x301f53282378","extraData":"0x65746865726d696e652e6f7267202845553129","gasLimit":"0x47e7c4","gasUsed":"0x261ae","hash":"0x0a283943a9a99fe706de36a2ac34465f4924cf09e7d917db3b1b6677b3f7cc01","logsBloom":"0x00000000000000000000000000000000000000000000000000000000000000000000000000000000000000000000000000000000000000000000000000000000000000000000000000000000000000000000000000000000000000000000000000000000000000000000000000000000000000000000000000000000000000000000000000000000000000000000000000000000000000000000000000000000000000000000000000000000000000000000000000000000000000000000000000000000000000000000000000000000000000000000000000000000000000000000000000000000000000000000000000000000000000000000000000000000","miner":"0xea674fdde714fd979de3edf0f56aa9716b898ec8","mixHash":"0x5a2b52a63e49616e524a3c01d857eda64db35be95eda8e85bbfa4a2568c70587","nonce":"0x275f84c6b800f047","number":"0x1e7232","parentHash":"0xe19aa0276eee73e6d548e457eff67797dfec9142a8c9044b7494cf19fd5c55e4","receiptsRoot":"0x4cb69dc923d85727887dec16306b0228323d8272b25369ba6215117f9bf46214","sealFields":["0xa05a2b52a63e49616e524a3c01d857eda64db35be95eda8e85bbfa4a2568c70587","0x88275f84c6b800f047"],"sha3Uncles":"0x1dcc4de8dec75d7aab85b567b6ccd41ad312451b948a7413f0a142fd40d49347","size":"0x3ed","stateRoot":"0x01b8959131929dfed812874789c38bd68dc7ca6a6f308951400b8f89db339c10","timestamp":"0x57a004c3","totalDifficulty":"0x25f76d8ce6593e5cf","transactions":[{"blockHash":"0x0a283943a9a99fe706de36a2ac34465f4924cf09e7d917db3b1b6677b3f7cc01","blockNumber":"0x1e7232","chainId":null,"condition":null,"creates":null,"from":"0x2a7f8fa32012ba83e77afa782fbc9267ab0967d5","gas":"0x15f90","gasPrice":"0x4a817c800","hash":"0xd6bfccab86d4638287499eb3e1779c3e771d362ea1a292015db681733f275586","input":"0x","nonce":"0x579","publicKey":"0xf14ea1a221aafb2e5def176dd421e60d74def1a0f5843e0f13ce2f9a4056de7154d40b896f06cff0b116a5e126eb428375a05a0b7b3788f642f3763a50057bcf","r":"0xaf720f28bf2f87fbb61268deb83a22ed838fa955a5644e4e6018ee13e0bad23","raw":"0xf8708205798504a817c80083015f90941486fbea918866846bb267e85be8b73a5486f29e89024dc50a245a33d400801ba00af720f28bf2f87fbb61268deb83a22ed838fa955a5644e4e6018ee13e0bad23a07119a0b628df34a987406463e97be73dfd0ecc93083eb021e44f6a6e5a8cc6ee","s":"0x7119a0b628df34a987406463e97be73dfd0ecc93083eb021e44f6a6e5a8cc6ee","standardV":"0x0","to":"0x1486fbea918866846bb267e85be8b73a5486f29e","transactionIndex":"0x0","v":"0x1b","value":"0x24dc50a245a33d400"},{"blockHash":"0x0a283943a9a99fe706de36a2ac34465f4924cf09e7d917db3b1b6677b3f7cc01","blockNumber":"0x1e7232","chainId":null,"condition":null,"creates":null,"from":"0xea674fdde714fd979de3edf0f56aa9716b898ec8","gas":"0x15f90","gasPrice":"0x4a817c800","hash":"0x8576d4a6952331e63f1f8a122c0d45ca95f4520c0ccb5b3f2479a73bdd36343f","input":"0x","nonce":"0x56b93","publicKey":"0x5d8af02c52b1fb40e45d6e04ae2351d443d1f7327e9b6dbb5ae1d918414899c625690c4c236889e23d9705f9db88876542b959d947a3497a30d0d922ee30015f","r":"0x1b9fdcd3b72ebb70bde906433abd86e54d00371b43689a9ebf15c42476610129","raw":"0xf87083056b938504a817c80083015f9094ef846f473ef73c34d75712babd7d04bfabd7b56c880e10b0466bd1d398801ca01b9fdcd3b72ebb70bde906433abd86e54d00371b43689a9ebf15c42476610129a01e8b588dc90de3e0bf4c6b01de5699a3e64d2ce909aea85a214e5f3096006fb1","s":"0x1e8b588dc90de3e0bf4c6b01de5699a3e64d2ce909aea85a214e5f3096006fb1","standardV":"0x1","to":"0xef846f473ef73c34d75712babd7d04bfabd7b56c","transactionIndex":"0x1","v":"0x1c","value":"0xe10b0466bd1d398"},{"blockHash":"0x0a283943a9a99fe706de36a2ac34465f4924cf09e7d917db3b1b6677b3f7cc01","blockNumber":"0x1e7232","chainId":null,"condition":null,"creates":null,"from":"0xfe2b40254ef79cdeb30283ade2d6990cdfee3d77","gas":"0x2dc6c0","gasPrice":"0x4a817c800","hash":"0x73158d630d2d73a0869ec4088310cf72cb793e82eb08793a257f66ac45d5599e","input":"0x54a380060000000000000000000000000000000000000000000000000000000000000040000000000000000000000000ebfaa805cf814c060cfac25adf75485fa528cb9a000000000000000000000000000000000000000000000000000000000000001c44657374726f7920476f6c6420536d61727420436f6e74726163747300000000","nonce":"0x17","publicKey":"0x7d67594eece75775b874963343fbd7e66803c0d1a81e99a5f0faf0863c2db6b2ef04f9c3dd12af2b80d1e5c8b4aec2d608cc62d4acdda6c7b265535c1236e109","r":"0xd812c7bb5f01d1f394578cbe5e6fe81dcf44b1cad52bd74871c08642d5eeb9ab","raw":"0xf8ea178504a817c800832dc6c09439de77332944a568fa1e565053cac8dbdfc4c0eb80b88454a380060000000000000000000000000000000000000000000000000000000000000040000000000000000000000000ebfaa805cf814c060cfac25adf75485fa528cb9a000000000000000000000000000000000000000000000000000000000000001c44657374726f7920476f6c6420536d61727420436f6e747261637473000000001ba0d812c7bb5f01d1f394578cbe5e6fe81dcf44b1cad52bd74871c08642d5eeb9aba03fd8a349883d26bcf6cbde757d110d87dd5a95b5c632b3f094c527016943c12a","s":"0x3fd8a349883d26bcf6cbde757d110d87dd5a95b5c632b3f094c527016943c12a","standardV":"0x0","to":"0x39de77332944a568fa1e565053cac8dbdfc4c0eb","transactionIndex":"0x2","v":"0x1b","value":"0x0"}],"transactionsRoot":"0x976cfa98e970746ea6c254552dd31cb2a3f7cc38b0e08a744c91aaf1fbbbd84e","uncles":[]},"id":"1"},
{"jsonrpc":"2.0","result":{"author":"0xbcdfc35b86bedf72f0cda046a3c16829a2ef41d1","difficulty":"0x2fb8651f992b","extraData":"0x7777772e62772e636f6d","gasLimit":"0x47c94c","gasUsed":"0xa410","hash":"0x93ef1e0e47b32163d9cf9bd2e0a5f52b05e04f77fc99c7750b551553eb0c94c3","logsBloom":"0x00000000000000000000000000000000000000000000000000000000000000000000000000000000000000000000000000000000000000000000000000000000000000000000000000000000000000000000000000000000000000000000000000000000000000000000000000000000000000000000000000000000000000000000000000000000000000000000000000000000000000000000000000000000000000000000000000000000000000000000000000000000000000000000000000000000000000000000000000000000000000000000000000000000000000000000000000000000000000000000000000000000000000000000000000000000","miner":"0xbcdfc35b86bedf72f0cda046a3c16829a2ef41d1","mixHash":"0xcdf70b9be58c13e922bed72d090c2d1b90751385319c51abdd9c1e58409a2de4","nonce":"0x5bae65eb75b8f694","number":"0x1de081","parentHash":"0x6b218fa2bfd0e3c331c5f442dc559208a1ee41e8a01c2c689b0f338a107d3708","receiptsRoot":"0xe284ad251fe0ec20835fdf562aa24a52ef118d9383ba7609826fd5d164839d8f","sealFields":["0xa0cdf70b9be58c13e922bed72d090c2d1b90751385319c51abdd9c1e58409a2de4","0x885bae65eb75b8f694"],"sha3Uncles":"0x1dcc4de8dec75d7aab85b567b6ccd41ad312451b948a7413f0a142fd40d49347","size":"0x2f1","stateRoot":"0x29ed2489aaf51224577c6235d867594453af4dc39017bc0c48320860cd8527cc","timestamp":"0x5797db28","totalDifficulty":"0x2436438816508ae09","transactions":[{"blockHash":"0x93ef1e0e47b32163d9cf9bd2e0a5f52b05e04f77fc99c7750b551553eb0c94c3","blockNumber":"0x1de081","chainId":null,"condition":null,"creates":null,"from":"0x7365fe88666f3474fd7631f3ff669c6787a5bf49","gas":"0x5208","gasPrice":"0x4a817c800","hash":"0x5b0b4c79fbb61d6a439b2d6a9bed03e7e2c7de87e9a4f6d860312ffb4f98618e","input":"0x","nonce":"0x1f","publicKey":"0xd0fa97f08e8117b21f6ce3667b06426d16ec89170b18643fcec1c26201b819ab35bfd2ebfc44d63955c44178e09508e3a52f184a401d20682f8e9ae71f1cee39","r":"0x34b8ecb3d331606450991ce0bbbfda64bb4f777e12b701f0a56bc731a7c2aa53","raw":"0xf86b1f8504a817c800825208947ed1e469fcb3ee19c0366d829e291451be638e59871c1f4bdab1ec00801ca034b8ecb3d331606450991ce0bbbfda64bb4f777e12b701f0a56bc731a7c2aa53a064ca29d548eb877c5fad3303abb5707fdd1ca0b3c6b36a711316142eb29dc13c","s":"0x64ca29d548eb877c5fad3303abb5707fdd1ca0b3c6b36a711316142eb29dc13c","standardV":"0x1","to":"0x7ed1e469fcb3ee19c0366d829e291451be638e59","transactionIndex":"0x0","v":"0x1c","value":"0x1c1f4bdab1ec00"},{"blockHash":"0x93ef1e0e47b32163d9cf9bd2e0a5f52b05e04f77fc99c7750b551553eb0c94c3","blockNumber":"0x1de081","chainId":null,"condition":null,"creates":null,"from":"0xea674fdde714fd979de3edf0f56aa9716b898ec8","gas":"0x15f90","gasPrice":"0x4a817c800","hash":"0x35569f795bc0a8769dedb88cdf37cad28397aa53ffc1e8bc23a0b8583af58b82","input":"0x","nonce":"0x50da5","publicKey":"0x5d8af02c52b1fb40e45d6e04ae2351d443d1f7327e9b6dbb5ae1d918414899c625690c4c236889e23d9705f9db88876542b959d947a3497a30d0d922ee30015f","r":"0x550d5194d95ed5ea124177824f71550a3275c4b1b51a60a6c3ca7a2fc9c46100","raw":"0xf87083050da58504a817c80083015f909424d570d6b723b7da877c4fcd0138a27222b68894880de13a4c97368064801ca0550d5194d95ed5ea124177824f71550a3275c4b1b51a60a6c3ca7a2fc9c46100a04c641054fbdf7379c805357d30ac467a2cfaeb3afc939ae178855aef127f004a","s":"0x4c641054fbdf7379c805357d30ac467a2cfaeb3afc939ae178855aef127f004a","standardV":"0x1","to":"0x24d570d6b723b7da877c4fcd0138a27222b68894","transactionIndex":"0x1","v":"0x1c","value":"0xde13a4c97368064"}],"transactionsRoot":"0xb82a3089b32828fdf00c1dc690253c4c171cf5e31cde2a19818a219d991841fd","uncles":[]},"id":"1"}], "meta": {"unripe": "0xdeadbeef","ripe": "0xdeadbeef","staging": "0xdeadbeef","finalized": "0xdeadbeef" } }