{
    "blockHash": "0x95ed23f3dbe278de7d94d8e606dfeeea0fb52b84f370f469dc335dc14537a1df",
    "blockNumber": "0x9efead",
    "chainId": "0x1",
    "condition": null,
    "creates": null,
    "from": "0x00de4b13153673bcae2616b67bf822500d325fc3",
    "gas": "0x2ab98",
    "gasPrice": "0xf5de81400",
    "hash": "0x13c009ea6e294c639ffcc3fe10dc2894a158e148cda06574909dc5b98f740802",
    "input": "0x9120491c000000000000000000000000000000000000000000000000000000000000002000000000000000000000000000000000000000000000000000000000000000010000000000000000000000006b175474e89094c44da98b954eedeac495271d0f00000000000000000000000000000000000000000000001f711def073e9000000000000000000000000000001719c7dc8216ce67f96171e1a817195ae075d78d",
    "nonce": "0xf85",
    "publicKey": "0x2ceba0d427073a1f6974a617dd7c065502c4c56782c05698f63dc6bd04a96c07f1bd447378f5ca9d7c9f9528a4afd572bbd4b01118c06a4df5c2257970ec1199",
    "r": "0x128f22f465a516126184bf89a66c7efc412098c1815eb2c256cdcdb9f4558201",
    "raw": "0xf9010c820f85850f5de814008302ab98947d655c57f71464b6f83811c55d84009cd9f5221c80b8a49120491c000000000000000000000000000000000000000000000000000000000000002000000000000000000000000000000000000000000000000000000000000000010000000000000000000000006b175474e89094c44da98b954eedeac495271d0f00000000000000000000000000000000000000000000001f711def073e9000000000000000000000000000001719c7dc8216ce67f96171e1a817195ae075d78d26a0128f22f465a516126184bf89a66c7efc412098c1815eb2c256cdcdb9f4558201a037a60d8115def85afeeb44624abd216f4ce14ecc3cd8cea093365f490c40a079",
    "s": "0x37a60d8115def85afeeb44624abd216f4ce14ecc3cd8cea093365f490c40a079",
    "standardV": "0x1",
    "to": "0x7d655c57f71464b6f83811c55d84009cd9f5221c",
    "transactionIndex": "0x73",
    "v": "0x26",
    "value": "0x0",
    "receipt": {
    "contractAddress": "0x0",
    "gasUsed": 44601,
    "logs": [
      {
        "address": "0x7d655c57f71464b6f83811c55d84009cd9f5221c",
        "logIndex": 129,
        "topics": [
          "0x3bb7428b25f9bdad9bd2faa4c6a7a9e5d5882657e96c1d24cc41c1d6c1910a98",
          "0x0000000000000000000000006b175474e89094c44da98b954eedeac495271d0f",
          "0x00000000000000000000000000000000000000000000001f711def073e900000",
          "0x00000000000000000000000000de4b13153673bcae2616b67bf822500d325fc3"
        ],
        "data": "0x0000000000000000000000001719c7dc8216ce67f96171e1a817195ae075d78d",
      },
      {
        "address": "0x6b175474e89094c44da98b954eedeac495271d0f",
        "logIndex": 130,
        "topics": [
          "0xddf252ad1be2c89b69c2b068fc378daa952ba7f163c4a11628f55a4df523b3ef",
          "0x00000000000000000000000000de4b13153673bcae2616b67bf822500d325fc3",
          "0x0000000000000000000000001719c7dc8216ce67f96171e1a817195ae075d78d"
        ],
        "data": "0x00000000000000000000000000000000000000000000001f711def073e900000",
      }
    ],
    "status": 1
  }
}
